:100000000C9466000C948E000C948E000C948E0060
:100010000C948E000C948E000C948E000C948E0028
:100020000C948E000C948E000C948E000C948E0018
:100030000C948E000C948E000C948E000C948E0008
:100040000C940B060C948E000C94D9050C94B305FB
:100050000C948E000C948E000C948E000C948E00E8
:100060000C948E000C948E009979825AA1EBD96E73
:10007000DCBC1B8FD6C162CA00000000250028002E
:100080002B0000000000240027002A0004040404C0
:100090000404040402020202020203030303030332
:1000A000010204081020408001020408102001020F
:1000B000040810200123456789ABCDEFFEDCBA9818
:1000C00076543210F0E1D2C35506650A11241FBEE2
:1000D000CFEFD8E0DEBFCDBF22E0A6E4B1E001C0A3
:1000E0001D92AC3EB207E1F711E0A0E0B1E0EAE01A
:1000F000FBE102C005900D92A634B107D9F710E0DC
:10010000C5E6D0E004C02197FE010E94770BC436FB
:10011000D107C9F70E9496060C94780D0C94000044
:100120000895AF92BF92CF92DF92EF92FF920F931A
:100130001F93CF93DF936C017B018B01040F151F7D
:10014000EB015E01AE18BF08C017D10759F06991E5
:10015000D601ED91FC910190F081E02DC601099549
:10016000892B79F7C501DF91CF911F910F91FF90F6
:10017000EF90DF90CF90BF90AF900895FC01538D2A
:10018000448D252F30E0842F90E0821B930B541771
:1001900010F0CF96089501970895FC01918D828DFE
:1001A000981761F0A28DAE0FBF2FB11D5D968C9197
:1001B000928D9F5F9F73928F90E008958FEF9FEFD6
:1001C00008952FB7F89480918B0190918C01A091A4
:1001D0008D01B0918E012FBF80939701909398016C
:1001E000A0939901B0939A018FE891E00E94CD000D
:1001F00097FF26C02FB7F89480918B0190918C01C6
:10020000A0918D01B0918E012FBF40919701509127
:1002100098016091990170919A01841B950BA60B2E
:10022000B70B4091930150919401609195017091A9
:10023000960184179507A607B707B0F28FEF9FEFD7
:100240000895FC01918D828D981731F0828DE80F11
:10025000F11D858D90E008958FEF9FEF08952FB7E2
:10026000F89480918B0190918C01A0918D01B091B7
:100270008E012FBF8093970190939801A0939901CD
:10028000B0939A018FE891E00E94210197FF26C068
:100290002FB7F89480918B0190918C01A0918D01E2
:1002A000B0918E012FBF40919701509198016091BC
:1002B000990170919A01841B950BA60BB70B409185
:1002C000930150919401609195017091960184176A
:1002D0009507A607B707B0F28FEF9FEF0895FC01CF
:1002E000918D228D892F90E0805C9F4F821B910918
:1002F0008F73992708958FE891E00E946F0121E0A4
:10030000892B09F420E0822F089580E090E0892B6A
:1003100029F00E947B0181110C9400000895FC01DA
:10032000A48DA80FB92FB11DA35ABF4F2C91848D56
:1003300090E001968F739927848FA689B7892C93B3
:10034000A089B1898C91837080648C93938D848D06
:10035000981306C00288F389E02D80818F7D808309
:100360000895EF92FF920F931F93CF93DF93EC01C9
:1003700081E0888F9B8D8C8D98131AC0E889F9894C
:10038000808185FF15C09FB7F894EE89FF8960834F
:10039000E889F98980818370806480839FBF81E0D0
:1003A00090E0DF91CF911F910F91FF90EF90089512
:1003B000F62E0B8D10E00F5F1F4F0F731127E02EED
:1003C0008C8D8E110CC00FB607FCFACFE889F98925
:1003D000808185FFF5CFCE010E948F01F1CFEB8D9B
:1003E000EC0FFD2FF11DE35AFF4FF0829FB7F894F9
:1003F0000B8FEA89FB8980818062CFCFCF93DF9317
:10040000EC01888D8823B9F0AA89BB89E889F9892C
:100410008C9185FD03C0808186FD0DC00FB607FC61
:10042000F7CF8C9185FFF2CF808185FFEDCFCE0194
:100430000E948F01E9CFDF91CF9108953FB7F894E3
:100440008091470190914801A0914901B0914A01E2
:1004500026B5A89B05C02F3F19F00196A11DB11D1F
:100460003FBFBA2FA92F982F8827BC01CD01620F5B
:10047000711D811D911D42E0660F771F881F991F16
:100480004A95D1F7089590E080E008952F923F9229
:100490004F925F926F927F928F929F92AF92BF9294
:1004A000CF92DF92EF92FF920F931F93CF93DF9340
:1004B000CDB7DEB7A8970FB6F894DEBF0FBECDBF9D
:1004C0001C018C010C5A1F4F1A830983D8018C918F
:1004D000F101E80FF11D648B8F5F8C93803409F07C
:1004E0002FC1F10174962081818190E0B0E0A0E0FD
:1004F000DC0199278827B22B2381822B2281922B22
:1005000081939193A193B19309811A810E171F07CB
:1005100051F7D1012D913D914D915C9113972F870A
:10052000388B498B5A8B14960D911D912D913C91CE
:1005300017970B8B1C8B2D8B3E8B18960D911D9155
:100540002D913C911B970F8B188F298F3A8F1C96FA
:100550000D911D912D913C911F970B8F1C8F2D8F0D
:100560003E8F50960D911D912D913C9153970F8F79
:1005700018A329A33AA30B891C892D893E898B8C4A
:100580009C8CAD8CBE8C4F88588C698C7A8CCF8CAF
:10059000D8A0E9A0FAA08F859889A989BA898B8308
:1005A0009C83AD83BE831A82198289819A8164E11A
:1005B00070E00E94060BFB01EE0FFF1FEE0FFF1F06
:1005C000E859FF4F85919591A591B4918F839887B4
:1005D000A987BA87E981FA81EF70FF273596EE0F78
:1005E000FF1FEE0FFF1FE20DF31D8B819C81AD817C
:1005F000BE814BE1B695A795979587954A95D1F71A
:100600004B815C816D817E81689414F8440F551F85
:10061000661F771F1694D1F7842B952BA62BB72B2B
:100620004F81588569857A85480F591F6A1F7B1F3E
:1006300080819181A281B381840F951FA61FB71F6E
:100640008C0D9D1DAE1DBF1D49815A814431510540
:100650000CF009C1B501A40144255525662577256F
:100660004023512362237323482559256A257B257E
:10067000840F951FA61FB71F6801790142E0F69409
:10068000E794D794C7944A95D1F7B901A801EEE150
:10069000440F551F661F771FEA95D1F74C295D2936
:1006A0006E297F2909811A810F5F1F4F1A830983E1
:1006B0000035110509F05DC00F85188929893A892F
:1006C000800F911FA21FB31FF10180839183A2832A
:1006D000B3838B899C89AD89BE890B811C812D8157
:1006E0003E81800F911FA21FB31F84839583A68331
:1006F000B7830F89188D298D3A8D400F511F621FC6
:10070000731F40875187628773878B8D9C8DAD8D5A
:10071000BE8D840D951DA61DB71D84879587A68760
:10072000B7870F8D18A129A13AA1800E911EA21E94
:10073000B31E808A918AA28AB38AEC5AFF4F108234
:10074000A8960FB6F894DEBF0FBECDBFDF91CF9154
:100750001F910F91FF90EF90DF90CF90BF90AF90DF
:100760009F908F907F906F905F904F903F902F90D1
:10077000089529813A812F703327220F331F220FCA
:10078000331FF101E20FF31FF887EF830489158906
:10079000268937890BA31CA32DA33EA309811A81A7
:1007A000003111050CF450C09801235031092F700D
:1007B00033272B5F3F4F220F331F220F331F220D92
:1007C000331DF8013897EF70FF273596EE0FFF1FA6
:1007D000EE0FFF1F8F01020D131D18A70FA3F901C4
:1007E000C080D180E280F380F801008111812281F4
:1007F0003381C026D126E226F3260BA11CA12DA110
:100800003EA10C251D252E253F25E981FA813E9725
:10081000EF70FF273596EE0FFF1FEE0FFF1FE20D63
:10082000F31DC080D180E280F3800C251D252E258C
:100830003F25000F111F221F331F011DEF81F88577
:10084000048B158B268B378B0B811C812D813E8170
:1008500075016401530142012A013B018B839C8392
:10086000AD83BE83A2CE49815A81B501483251057C
:10087000CCF049815A814C335105A4F4A401442998
:100880005529662977294023512362237323750153
:100890006401C420D520E620F7204C295D296E296B
:1008A0007F29E6CEA40144255525662577254027D6
:1008B000512762277327DCCE0F931F93CF93DF93CB
:1008C0008C010C5F1F4FC62FD0E0FC01EF59FF4F8A
:1008D0002081211125C038972081318142815381A7
:1008E0006481758186819781A1E00E94570B2083E6
:1008F00031834283538364837583868397836C2F0C
:10090000C8010E9446029E0181E090E0C217D30711
:1009100011F090E080E0DF91CF911F910F91089549
:100920002FEF3FEFF1CF42E050E064E271E08FE85B
:1009300091E00C949100CF93DF93EC018881998131
:10094000009711F00E94190C198218821D821C82D6
:100950001B821A82DF91CF910895FC0180819181E1
:10096000009711F00C94190C08950F931F93CF93D7
:10097000DF93EC0188819981009759F02A813B81AE
:100980002617370730F081E0DF91CF911F910F914B
:1009900008958B016F5F7F4F0E94A20C009759F062
:1009A000998388831B830A832C813D81232B59F7EC
:1009B000FC011082E8CF80E0E7CFEF92FF920F9327
:1009C0001F93CF93DF936115710541F480E0DF91B0
:1009D000CF911F910F91FF90EF9008954115510510
:1009E000B1F07B01EC010C811D81040F151FB801D2
:1009F0000E94B504882351F3288139818C819D811F
:100A0000B701820F931F0E94710D1D830C8381E03B
:100A1000DECFEF92FF920F931F93CF93DF93EC0102
:100A20007B018A01BA010E94B50481110BC0CE017D
:100A30000E949B04CE01DF91CF911F910F91FF90F7
:100A4000EF9008951D830C83B701888199810E94DE
:100A5000710DF0CFEF92FF920F931F93CF93DF931F
:100A6000CDB7DEB761970FB6F894DEBF0FBECDBF2E
:100A70008C01CB01F801118210821382128215823F
:100A800014824AE09E012F5F3F4F7901B9010E9415
:100A90008B0AF70101900020E9F73197AF014E1959
:100AA0005F09B701C8010E94090561960FB6F89465
:100AB000DEBF0FBECDBFDF91CF911F910F91FF9091
:100AC000EF900895FB0101900020E9F73197AF0105
:100AD000461B570B0C9409050F931F93CF93DF937D
:100AE00000D0CDB7DEB78C01FC01118210821382D9
:100AF00012821582148266E271E00E9462050E94F1
:100B0000E10097FD0EC08A30910559F089831A8261
:100B100041E050E0BE016F5F7F4FC8010E94DD04DD
:100B2000EECFC8010F900F90DF91CF911F910F91E1
:100B30000895FB01DC0111961C921E9213961C92E3
:100B40001E92129715961C921E921497861797075D
:100B500049F0608171816115710521F044815581F1
:100B60000C94090508951F920F920FB60F9211244D
:100B70002F933F934F935F936F937F938F939F93A5
:100B8000AF93BF93EF93FF938FE891E00E948F01A3
:100B9000FF91EF91BF91AF919F918F917F916F9155
:100BA0005F914F913F912F910F900FBE0F901F902B
:100BB00018951F920F920FB60F9211242F938F93B7
:100BC0009F93EF93FF93E0919F01F091A0018081AB
:100BD000E091A501F091A60182FD1BC0908180915A
:100BE000A8018F5F8F732091A901821741F0E091D6
:100BF000A801F0E0E157FE4F958F8093A801FF9187
:100C0000EF919F918F912F910F900FBE0F901F909A
:100C100018958081F4CF1F920F920FB60F92112476
:100C20002F933F938F939F93AF93BF9380918B01AB
:100C300090918C01A0918D01B0918E01309146016F
:100C400023E0230F2D3758F50196A11DB11D2093E8
:100C5000460180938B0190938C01A0938D01B093FA
:100C60008E018091470190914801A0914901B09176
:100C70004A010196A11DB11D80934701909348013F
:100C8000A0934901B0934A01BF91AF919F918F9179
:100C90003F912F910F900FBE0F901F90189526E84F
:100CA000230F0296A11DB11DD2CFEFE8F1E0138210
:100CB000128288EE93E0A0E0B0E084839583A6835F
:100CC000B7838AE091E09183808385EC90E09587FB
:100CD000848784EC90E09787868780EC90E0918B06
:100CE000808B81EC90E0938B828B82EC90E0958BF3
:100CF000848B86EC90E0978B868B118E128E138EF0
:100D0000148EECE2F2E0138212828CE191E0918386
:100D10008083E2EEF2E01182108213821282158249
:100D2000148266E271E0CF010C946205CF93DF93E9
:100D3000CDB7DEB7EF970FB6F894DEBF0FBECDBFCD
:100D4000789484B5826084BD84B5816084BD85B5A6
:100D5000826085BD85B5816085BD80916E008160B2
:100D600080936E0010928100809181008260809358
:100D7000810080918100816080938100809180005A
:100D80008160809380008091B10084608093B10085
:100D90008091B00081608093B00080917A0084607F
:100DA00080937A0080917A00826080937A008091AB
:100DB0007A00816080937A0080917A0080688093C5
:100DC0007A001092C100EDEAF0E02491E9E9F0E048
:100DD0008491882399F090E0880F991FFC01EE57C9
:100DE000FF4FA591B491FC01E858FF4F8591949174
:100DF0008FB7F894EC91E22BEC938FBFE0919F01B9
:100E0000F091A00182E08083E0919B01F0919C0130
:100E10001082E0919D01F0919E0180E1808310920B
:100E2000A701E091A301F091A40186E08083E09105
:100E3000A101F091A201808180618083E091A101F4
:100E4000F091A201808188608083E091A101F091FE
:100E5000A201808180688083E091A101F091A201CC
:100E600080818F7D80838FE891E00E946F01892BC4
:100E700051F045E050E067E271E08FE891E00E94B8
:100E800091000E9493049E012F5F3F4F7901F0E58E
:100E90008F2EF2E09F2ECE01CA960E946C058EAD79
:100EA0009FAD892B09F4F7C26DE271E08AAD9BAD6D
:100EB0000E94680D892B09F0EEC28FE891E00E9434
:100EC000FE01CE01C4960E946C05CE018E960E9452
:100ED0006C050E942F01FC0197FDC4C08D32910565
:100EE00041F0C0970A9728F08FE891E00E94CD006A
:100EF000F0CF412C512C320110E0E130F105D9F056
:100F0000ED32F10509F4ACC0CF01C0970A9798F40F
:100F1000AAE0B0E0A30192010E94B50A2F01FF0FE1
:100F200066087708460E571E681E791E30E3431A7E
:100F30005108610871088FE891E00E94CD000E947D
:100F40002F01FC01C0970A97C0F2E130F105A9F228
:100F5000112341F07094609450944094411C511CB2
:100F6000611C711C84E6849D5001859DB00C112488
:100F70008FEFA81AB80A0E941E021B012C01D12C67
:100F8000C12C11E0E8E26E2E712CCA14DB0408F0CB
:100F90007AC284EB90E0A0E3B2E0FC014591559168
:100FA000659174914D935D936D937D930496E4E404
:100FB000F2E0EA17FB0789F710928402109285028B
:100FC0001092860210928702109288021092890273
:100FD00010928A0210928B0210928C0210928D0253
:100FE000B601C7010E942A05BE016C5C7F4FCE018D
:100FF00088960E949905BE01685D7F4FCE0182965A
:101000000E9499054D815E8169817A81CE01829627
:101010000E94DD04811104C0CE0182960E949B04CF
:101020004EA15FA16AA17BA18CE292E00E94910097
:10103000CE0182960E94AD04CE0188960E94AD0436
:10104000C7010E94AD0410938D0260E880E392E036
:101050000E94460280918402883341F060E0F6CF1E
:1010600011E069CF412C512C32017CCF20918502B7
:1010700030918602409187025091880260918902E6
:1010800070918A0280918B0290918C0203E00E9401
:10109000210B08E30E943C0B622F80E392E00E9448
:1010A000460220918502309186024091870250913C
:1010B00088026091890270918A0280918B029091DE
:1010C0008C0203E00E94210B00E30E943C0B622F84
:1010D00080E392E00E9446022091850230918602D0
:1010E00040918702509188026091890270918A0232
:1010F00080918B0290918C0203E00E94210B08E208
:101100000E943C0B622F80E392E00E9446022091F5
:101110008502309186024091870250918802609149
:10112000890270918A0280918B0290918C0203E077
:101130000E94210B00E20E943C0B622F80E392E0B0
:101140000E944602209185023091860240918702DA
:10115000509188026091890270918A0280918B027D
:1011600090918C0203E00E94210B08E10E943C0B4D
:10117000622F80E392E00E94460220918502309126
:101180008602409187025091880260918902709195
:101190008A0280918B0290918C0203E00E94210BC5
:1011A00000E10E943C0B622F80E392E00E94460225
:1011B00020918502309186024091870250918802E9
:1011C0006091890270918A0280918B0290918C02C9
:1011D00003E00E94210B08E00E943C0B622F80E399
:1011E00092E00E94460260918502660F660F660FCC
:1011F00080E392E00E944602ECE2F2E064817581B5
:10120000868197810E941A0B6483758386839783F6
:1012100034962CE432E02E173F0781F78AE090E005
:10122000ABE4B1E020E332E0F90161919F01462F88
:1012300050E074E0559547957A95E1F74B5C5E4F29
:10124000FA0140814C93E62FEF70F0E0EB5CFE4F2B
:10125000408111964C93119712968216930621F7AE
:101260000197F1F61A8219821C821B821E821D824E
:101270006BE471E0C7010E9462058091E2029091E7
:10128000E302009709F452C069817A816115710502
:1012900009F44AC04091E4025091E5022D813E815B
:1012A0004217530708F440C00E94710D8D819E8142
:1012B0009093E7028093E6021E821D82C7010E947E
:1012C000AD048091E6029091E702899748F0E091A1
:1012D000E202F091E3027092E7026092E60210A649
:1012E000BE01625D7F4FC7010E94990562EE72E008
:1012F000CE0182960E9499052EA13FA18D819E81EB
:1013000028173907D1F58AA19BA169817A810097B5
:1013100021F16115710509F0CFC0232B09F4CFC06D
:10132000FC01808190E026C00E94190C89819A817D
:101330009093E3028093E2028B819C819093E5027B
:101340008093E4028D819E819093E7028093E60270
:101350001A8219821C821B82AFCF6115710509F4B4
:10136000AEC0232B09F4ABC0FB01808190E09195C6
:101370008195910901E0892B09F000E0CE01829668
:101380000E94AD04C7010E94AD04002309F499C076
:101390000E941E021BA21AA21DA21CA21FA21EA214
:1013A00062197309840995092AE0A7010E94690A54
:1013B000F70101900020E9F73197AF014E195F095D
:1013C000B701CE0182960E940905B601CE0188962A
:1013D0000E942A05BE01685D7F4FC7010E949905E2
:1013E00041E050E063E371E0C7010E94DD04811138
:1013F00003C0C7010E949B044EA15FA16AA17BA10B
:10140000C7010E94DD04811103C0C7010E949B0433
:101410004D815E8169817A818FE891E00E9491001F
:101420000E949304C7010E94AD04CE0188960E94D9
:10143000AD04CE0182960E94AD042D9A0E941E0238
:101440005B016C0189E1482E512C612C712C0E94AA
:101450001E026A197B098C099D09683E734081054B
:101460009105A8F3F1E04F1A51086108710828EEC0
:10147000A20E23E0B21EC11CD11C41145104610410
:10148000710429F72D98CE018E960E94AD04CE01ED
:10149000C4960E94AD04CE01CA960E94AD0480E0BD
:1014A00090E0892B09F4F7CC0E947B01882309F492
:1014B000EECC0E940000EBCC0E94680D5BCF01E0F7
:1014C0005DCF8FEFC81AD80A60CD82EE92E00C94FF
:1014D000AD04BB27FA01A62F62177105810591059E
:1014E000330B30FB66F0AA27660F771F881F991F02
:1014F000AA1FA21710F0A21B63953850A9F7A05D90
:10150000AA3308F0A95DA19336F7B111B193108207
:10151000CA010C94A50ABB27FB015527AA27880FEF
:10152000991FAA1FA41710F0A41B83955051B9F757
:10153000A05DAA3308F0A95DA193009779F7B111D6
:10154000B1931192CB010C94A50ADC01FC01672F29
:1015500071917723E1F7329704C07C916D9370838A
:101560006291AE17BF07C8F308950E94F70AA59FBE
:10157000900DB49F900DA49F800D911D112408958E
:101580002F923F924F925F926F927F928F929F9293
:10159000AF92BF92CF92DF92EF92FF920F931F9381
:1015A000CF93DF93CDB7DEB7CA1BDB0B0FB6F89432
:1015B000DEBF0FBECDBF09942A88398848885F8472
:1015C0006E847D848C849B84AA84B984C884DF80E3
:1015D000EE80FD800C811B81AA81B981CE0FD11DC7
:1015E0000FB6F894DEBF0FBECDBFED010895A29FE8
:1015F000B001B39FC001A39F700D811D1124911DE7
:10160000B29F700D811D1124911D089597FB072E27
:1016100016F4009407D077FD09D00E94630B07FCF5
:1016200005D03EF4909581959F4F089570956195F2
:101630007F4F089569279627692778278727782776
:101640000895002E083090F0982F872F762F652F61
:10165000542F432F322F22270850F4CF220F331F4D
:10166000441F551F661F771F881F991F0A95B2F7E1
:10167000002D089597FD1094002E083098F0085022
:10168000232F342F452F562F672F782F892F912DF9
:10169000F4CF1594979587957795679557954795C6
:1016A000379527950A95AAF71124002D089500244F
:1016B000A7FD00942A0F301D401D501D601D701D98
:1016C000801D901D0895AA1BBB1B51E107C0AA1FD6
:1016D000BB1FA617B70710F0A61BB70B881F991FD3
:1016E0005A95A9F780959095BC01CD010895EE0F0C
:1016F000FF1F0590F491E02D09940F931F93CF9352
:10170000DF938230910510F482E090E0E091EA02EC
:10171000F091EB0230E020E0B0E0A0E0309799F4E7
:101720002115310509F44AC0281B390B2430310535
:10173000D8F58A819B816115710589F1FB0193833D
:101740008283FE0111C040815181028113814817BB
:101750005907E0F04817590799F4109761F012966D
:101760000C93129713961C933296CF01DF91CF9171
:101770001F910F9108950093EA021093EB02F4CFAA
:101780002115310551F04217530738F0A901DB014B
:101790009A01BD01DF01F801C1CFEF01F9CF9093AC
:1017A000EB028093EA02CDCFFE01E20FF31F81939B
:1017B00091932250310939832883D7CF2091E802B1
:1017C0003091E902232B41F4209102013091030171
:1017D0003093E9022093E802209100013091010149
:1017E0002115310541F42DB73EB7409104015091C8
:1017F0000501241B350BE091E802F091E902E217A4
:10180000F307A0F42E1B3F0B2817390778F0AC0123
:101810004E5F5F4F2417350748F04E0F5F1F509300
:10182000E9024093E802819391939FCFF0E0E0E0DA
:101830009CCFCF93DF930097E9F0FC01329713829E
:101840001282A091EA02B091EB02ED0130E020E0BB
:101850001097A1F420813181820F931F2091E8021B
:101860003091E9022817390709F061C0F093E902C5
:10187000E093E802DF91CF910895EA01CE17DF07E8
:10188000E8F54A815B819E0141155105B1F7E901F7
:10189000FB83EA8349915991C40FD51FEC17FD07CB
:1018A00061F4808191810296840F951FE9019983EB
:1018B0008883828193819B838A83F0E0E0E01296A3
:1018C0008D919C9113970097B9F52D913C911197AB
:1018D000CD010296820F931F2091E8023091E90218
:1018E0002817390739F6309751F51092EB0210920C
:1018F000EA02B093E902A093E802BCCFD383C2838B
:1019000040815181840F951FC817D90761F44E5F3C
:101910005F4F88819981480F591F518340838A8185
:101920009B81938382832115310509F0B0CFF09319
:10193000EB02E093EA029ECFFD01DC01C0CF1382EF
:101940001282D7CFB0E0A0E0E8EAFCE00C94C20A33
:101950008C01009751F4CB010E947D0B8C01C801D2
:10196000CDB7DEB7E0E10C94DE0AFC01E60FF71F0D
:101970009C0122503109E217F30708F49DC0D901F8
:10198000CD91DC911197C617D70798F0C530D105D6
:1019900030F3CE0104978617970708F3C61BD70BC1
:1019A0002297C193D1936D937C93CF010E94190C20
:1019B000D6CF5B01AC1ABD0A4C018C0E9D1EA091C6
:1019C000EA02B091EB02512C412CF12CE12C109742
:1019D00031F58091E8029091E9028815990509F0A6
:1019E0005CC04616570608F058C0809100019091DF
:1019F0000101009741F48DB79EB7409104015091C9
:101A00000501841B950BE817F90708F055C0F09302
:101A1000E902E093E802F90171836083A0CF8D9120
:101A20009C91119712966C90129713967C90139735
:101A3000A815B90559F56C0142E0C40ED11CCA14B1
:101A4000DB0420F1AC014A195B09DA011296159703
:101A500080F06282738251834083D9016D937C93BD
:101A6000E114F10471F0D7011396FC93EE931297F1
:101A700076CF22968C0F9D1FF90191838083F3010D
:101A8000EFCFF093EB02E093EA0269CF48165906D4
:101A900008F42C017D01D3019ACFCB010E947D0B6C
:101AA0007C01009749F0AE01B8010E945F0DC801AA
:101AB0000E94190C870153CF10E000E050CFFB01CA
:101AC000DC0102C001900D9241505040D8F70895BA
:101AD000FB01DC018D91019080190110D9F3990B64
:101AE0000895FB01DC0101900D920020E1F70895BB
:101AF00010E0C5E6D0E004C0FE010E94770B2196FD
:101B0000C636D107C9F7F894FFCF0000EC02800079
:101B100000000000B1019100BE00FE016F01CD0088
:101B20002101000000005C049100430290000D0AB6
:101B3000007265616479007374617274002C003006
:101B40003132333435363738396162636465660063
:101B5000FFFFFFFFFFFFFFFFFFFFFFFFFFFFFFFF95
:101B6000FFFFFFFFFFFFFFFFFFFFFFFFFFFFFFFF85
:101B7000FFFFFFFFFFFFFFFFFFFFFFFFFFFFFFFF75
:101B8000689437F882010AC00C5F1F4FFFE3F983A6
:101B900088248394912C6501E89437F833FE2DC096
:101BA000522C8114910471F5552009F468CFB701C6
:101BB00080E290E00E941D0F5A94F6CFF8018081D8
:101BC00089830E5F1F4FE4CF2801F2E04F0E511CB6
:101BD000F801C080D180692D70E036FC02C06FEF43
:101BE0007FEFC6010E94120F4C018201D5CFB701D1
:101BF00080E290E00E941D0F2A942814190409F035
:101C0000B0F7CECFF60137FC859137FE81916F0199
:101C1000B70190E00E941D0F51105A94F1E08F1A05
:101C20009108BFCF843619F0893609F077C0F801E2
:101C300037FE6BC060817181828193810C5F1F4F81
:101C4000F32DFF763F2E97FF09C0909580957095F4
:101C500061957F4F8F4F9F4F689437F82AE030E0AF
:101C6000A5010E944D0FC82ECA188C2C432C36FE9D
:101C70000CC0E89440F8C91440F434FE05C032FCAE
:101C800003C0F32DFE7E4F2E892C44FE95C0FE012D
:101C9000EC0DF11D8081803309F087C0242D297E51
:101CA000422E842D8870582E43FC95C040FE8FC074
:101CB0009C2C821418F42C0C922C981844FE91C081
:101CC000B70180E390E00E941D0F42FE09C088E743
:101CD00090E041FE02C088E590E0B7010E941D0F30
:101CE000C91408F48AC0CA94D12C9FEFC91AD90A22
:101CF000CA0CDB1CF60182916F01B70190E00E94D3
:101D00001D0FAC14BD04B1F74FCF60817181072E58
:101D1000000C880B990B0E5F1F4F92CFD32CE894C9
:101D2000D4F82AE030E0853739F1232D297FD22EEF
:101D30008F3601F148F48835A9F0F7018681978143
:101D40002B96E2E10C94D10A803749F08837A9F745
:101D5000D4FE02C06894D2F820E130E00DC068944F
:101D6000D4F8F6CF34FE03C0822F8660D82E20E14F
:101D700032E002C028E030E0F801D7FE0FC06081F9
:101D80007181828193810C5F1F4FA5010E944D0FCD
:101D9000C82ECA183D2CE89437F867CF608171814E
:101DA00090E080E00E5F1F4FF0CF42FC02C08394B2
:101DB00078CF8394839475CF842D867809F471CF7E
:101DC000F6CFB70180E290E00E941D0F8394821449
:101DD000C0F3512C73CF522C5818821408F46ECFD4
:101DE000F8CF842D867809F47BCF8BE241FE80E228
:101DF00047FC8DE2B70190E071CFB70180E390E03E
:101E00000E941D0F9A946CCF8FEF9FEF99CFFC012A
:101E10000590615070400110D8F7809590958E0F15
:101E20009F1F0895FC016150704001900110D8F788
:101E3000809590958E0F9F1F08950F931F93CF93BA
:101E4000DF93182F092FEB018B8181FD09C01FEF54
:101E50000FEF812F902FDF91CF911F910F91089558
:101E600082FF14C02E813F818C819D812817390704
:101E70003CF4E881F981CF0101969983888310832E
:101E80008E819F8101969F838E83E3CFE885F985BC
:101E9000812F0995892BA1F3DACFFA01AA272830DF
:101EA00051F1203181F1E8946F936E7F6E5F7F4F27
:101EB0008F4F9F4FAF4FB1E03ED0B4E03CD0670FA3
:101EC000781F891F9A1FA11D680F791F8A1F911DF6
:101ED000A11D6A0F711D811D911DA11D20D009F446
:101EE00068943F912AE0269F11243019305D319388
:101EF000DEF6CF010895462F4770405D4193B3E071
:101F00000FD0C9F7F6CF462F4F70405D4A3318F017
:101F1000495D31FD4052419302D0A9F7EACFB4E0C8
:101F2000A6959795879577956795BA95C9F7009780
:101F30006105710508959B01AC010A2E0694579521
:101F4000479537952795BA95C9F7620F731F841F78
:101F5000951FA01D089510E0C5E3D0E004C0FE0168
:101F60000E94120B2196C633D107C9F7F894FFCF10
:101F7000000004048000982F8A4291443771CFFBFF
:101F8000C0B5A5DBB5E95BC25639F111F159A482A0
:101F90003F92D55E1CAB98AA07D8015B8312BE8521
:101FA0003124C37D0C55745DBE72FEB1DE80A70680
:101FB000DC9B74F19BC1C1699BE48647BEEFC69D63
:101FC000C10FCCA10C246F2CE92DAA84744ADCA982
:101FD000B05CDA88F97652513E986DC631A8C827B0
:101FE00003B0C77F59BFF30BE0C64791A7D5516334
:101FF000CA0667292914850AB72738211B2EFC6DCC
:102000002C4D130D385354730A65BB0A6A762EC9DA
:10201000C281852C7292A1E8BFA24B661AA8708B70
:102020004BC2A3516CC719E892D1240699D68535C5
:102030000EF470A06A1016C1A419086C371E4C77F4
:102040004827B5BCB034B30C1C394AAAD84E4FCA85
:102050009C5BF36F2E68EE828F746F63A5781478A3
:10206000C8840802C78CFAFFBE90EB6C50A4F7A39B
:10207000F9BEF27871C600000000000160008D001A
:102080004D01BE009C00B000746869732069732024
:1020900061207465737420737472696E67002530F3
:1020A00032780000FFFFFFFFFFFFFFFFFFFFFFFF92
:1020B000FFFFFFFFFFFFFFFFFFFFFFFFFFFFFFFF30
:1020C000FFFFFFFFFFFFFFFFFFFFFFFFFFFFFFFF20
:1020D000FFFFFFFFFFFFFFFFFFFFFFFFFFFFFFFF10
:1020E000FFFFFFFFFFFFFFFFFFFFFFFFFFFFFFFF00
:1020F000FFFFFFFFFFFFFFFFFFFFFFFFFFFFFFFFF0
:102100001092DD021092DC021092F802DF91CF9162
:102110001F910F9108954F925F926F927F928F92CD
:102120009F92AF92BF92DF92EF92FF920F931F9315
:10213000CF93DF93D82E8B01D42FC22F6F3F76071A
:1021400009F490C081E080932104D092430410925E
:1021500022041092440488EA95E00E94BA088C2F69
:102160000E9472078091DA029091DB028230910521
:1021700038F0880F991F880F991F05970197F1F77D
:102180000E94D8034B015C0180911B0481116CC03B
:10219000CD2FD13208F0C0E281E080931B04809300
:1021A0001A049FEF90931904109218049C0F9093B7
:1021B00017048093F6039091F6038D2D880F892BD9
:1021C0008093F6038091F503813009F09EC0109250
:1021D000F5030E94D8034B015C018091F6038093C4
:1021E000BB0080911D0490911E04A0911F04B0912A
:1021F0002004892B8A2B8B2BA1F00E94D8034090BE
:102200001D0450901E0460901F04709020046819F3
:1022100079098A099B09461657066806790608F463
:1022200044C08091BC0083FDD8CF85EC8093BC0076
:102230000E94D8034B015C0180911B04813009F49A
:1022400066C0809118048C1710F4C0911804A7EF91
:10225000B3E0EAEFF2E080E08C1761F19D91919399
:102260008F5FFACF00E08CCF80911D0490911E0407
:10227000A0911F04B0912004892B8A2B8B2B09F489
:1022800083CF0E94D80340901D0450901E0460909C
:102290001F0470902004681979098A099B09461661
:1022A00057066806790608F06FCF80911C040E94DB
:1022B0005107C0E010921B03C0931A03ED2EF12CBE
:1022C0008C2F90E0E816F9060CF043C08EE891E000
:1022D0000E94170CD0929A0200939B020AE912E026
:1022E000C8018A5992408E159F05D4F50F5F1F4F84
:1022F00090911A0380911B03981791F188EA95E059
:102300000E947308F8018183EBCF85EE8FCF809117
:102310001D0490911E04A0911F04B0912004892BEC
:102320008A2B8B2B09F488CF0E94D80340901D0480
:1023300050901E0460901F04709020046819790961
:102340008A099B09461657066806790608F074CF75
:10235000ACCF8E159F050CF0BDCF8BEA91E0B8CFC6
:10236000DE5F6D2F70E04AE952E087E7DF91CF91A1
:102370001F910F91FF90EF90DF90BF90AF909F90D3
:102380008F907F906F905F904F900C944606EF92E5
:10239000FF920F931F93CF93DF9380568B3108F0FA
:1023A0003CC0EA01162FE82FF0E0E752FE4E0C94F5
:1023B000051D39140D120D120D120D120D120D12F4
:1023C0000D120D1228140D128F130D12E7130D129A
:1023D0006D1311130D120D120D120D120D12F411B9
:1023E0000D12D5120D125713998195FF0AC087EC73
:1023F00091E0DF91CF911F910F91FF90EF900C949E
:10240000170C888131E096FB222720F92327987149
:102410009830D1F148F49923A9F0DF91CF911F9121
:102420000F91FF90EF900895903109F44CC09831CE
:10243000A1F72091000112160CF472C08FEF809367
:102440000001EBCF309321048093430410922204C7
:102450001092440402E0011778F4FE01E00FF11D30
:1024600061816795662767958081680F88EA95E0A6
:102470000E94BA080E5FEFCF81E00E94720783E1ED
:1024800091E00197F1F7C9CF9A814B816630A1F4B1
:1024900030E8439FB0011124690F711D4D814795AC
:1024A000442747959C81490FDF91CF911F910F9150
:1024B000FF90EF900C948B10479544274795490F58
:1024C0006FEF7FEFF1CFE0910001E7301CF087EE76
:1024D00091E08FCF3A819B816630D9F460E8969F76
:1024E000A0011124430F511D9D8197959927979520
:1024F0003C81930FEF5FE093000135E0E302F001D0
:102500001124E953FC4F80835283418393832483B6
:1025100084CF979599279795930F4FEF5FEFEACF69
:1025200090E0622F022E000C770B35E0492F50E02F
:102530006417750764F0349FF001359FF00D112486
:10254000E953FC4F4081481719F09F5FEFCF90E0AF
:1025500085E0492F50E0641775071CF19830F8F4B6
:10256000FA0131968E9FD0018F9FB00D1124A9538F
:10257000BC4F3C91849FF001859FF00D1124E953DD
:10258000FC4F308311964D915C9112975283418399
:1025900013963C911397338314963C9134839F5F39
:1025A000D8CF21502093000138CF623078F0898154
:1025B00060E8869F900111248881820F932F911DDE
:1025C000009721F09093DB028093DA028091F7026A
:1025D000811123CFC0E08EEE8C0F823028F466E0AC
:1025E00070E08C2F0E94D60ECF5FC631A1F781E03C
:1025F0008093F70210921B0310921A031092220488
:10260000109244040E94330782E698E090933E03C0
:1026100080933D0383E698E09093420380934103C7
:10262000FCCE653008F4F9CE18818EEF810F82312F
:1026300008F0F3CE0981EA80FB80CC81E12FF0E045
:10264000E252FD4F80818C30C0F490E0FC01EE0F2F
:10265000FF1FE80FF91FE752FA4FE0818E2F90E03D
:10266000FC01EE0FFF1FE80FF91FEC54FA4F8081B9
:1026700086FF03C0812F0E94E40B80E8C89FA00161
:1026800011244F0D511D90E8E99EB0011124600FF7
:10269000711D812F0E94230C64E070E0812FDF9177
:1026A000CF911F910F91FF90EF900C94D60E623056
:1026B00008F4B3CE8981E0E88E9F900111248881CF
:1026C000820F932F911D009729F090930201809320
:1026D0000101A3CE81E090E0F8CF623008F49DCEF6
:1026E000698170E0123091F08A81F0E88F9FC0011B
:1026F0001124682B792B133049F08B8190E090E402
:10270000899F902D88271124682B792B8881DF9150
:10271000CF911F910F91FF90EF900C94440A80EF9E
:102720000E94DC008CE60E94DC00CEEF84EF8C0F70
:10273000883020F582E00E94DC008AE00E94DC0004
:102740008DEF8C0F8230E0F089EF8C0F8330F0F446
:1027500017C0C23158F780E00E94DC0081E00E947F
:10276000DC008BE00E94DC0081E00E94DC0081E064
:102770000E94DC0081E00E94DC00D8CFC13001F76C
:1027800083E00E94DC0088E00E94DC00C23130F46B
:1027900084E00E94DC008EE00E94DC0080EF8C0F61
:1027A000823030F486E00E94DC0081E00E94DC0090
:1027B0008FE70E94DC00CF5FC43159F687EFDF91CD
:1027C000CF911F910F91FF90EF900C94DC00662346
:1027D00009F423CEC88180EF0E94DC008EE60E94BF
:1027E000DC008C2F0E94DC00C63140F7D0E0FE01F7
:1027F000EB59FA4F80810E94DC00CC0FDD1F8E0167
:1028000005581A4FF80180818F770E94DC00F8018B
:10281000808191819C012078232B39F0880F892FAA
:10282000881F990B8F770E94DC00C558DA4F88818A
:1028300099819C012227307C232B09F4BFCF990F6B
:10284000880B990F982F881F8F770E94DC00B6CFD6
:1028500080EF0E94DC008AE60E94DC00C2EF8FE776
:10286000C83008F48C2F0E94DC00CF5FC830B9F765
:10287000A5CF9A01462F60E68DEF95E0DF91CF91CD
:102880001F910F91FF90EF900C947D0C1F920F926F
:102890000FB60F9211242F933F934F935F936F9333
:1028A0007F938F939F93AF93BF93EF93FF9385E4B1
:1028B00094E00E944702FF91EF91BF91AF919F91E9
:1028C0008F917F916F915F914F913F912F910F90D9
:1028D0000FBE0F901F9018951F920F920FB60F9278
:1028E00011242F938F939F93EF93FF93E0915504BF
:1028F000F09156048081E0915B04F0915C0482FDCC
:102900001BC0908180915E048F5F8F7320915F0464
:10291000821741F0E0915E04F0E0EB5BFB4F958F96
:1029200080935E04FF91EF919F918F912F910F9073
:102930000FBE0F901F9018958081F4CF1F920F92B9
:102940000FB60F9211242F933F938F939F93AF93C2
:10295000BF938091C1039091C203A091C303B09132
:10296000C4033091A60323E0230F2D3758F50196B9
:10297000A11DB11D2093A6038093C1039093C203B0
:10298000A093C303B093C4038091A7039091A803BD
:10299000A091A903B091AA030196A11DB11D809336
:1029A000A7039093A803A093A903B093AA03BF9190
:1029B000AF919F918F913F912F910F900FBE0F90EC
:1029C0001F90189526E8230F0296A11DB11DD2CFA6
:1029D0001F920F920FB60F9211242F933F934F9394
:1029E0005F936F937F938F939F93AF93BF93EF9377
:1029F000FF93E091C503F091C603309749F0A68597
:102A0000B7858585968D91FF14C09C918923A1F48B
:102A1000FF91EF91BF91AF919F918F917F916F91B6
:102A20005F914F913F912F910F900FBE0F901F908C
:102A300018959C91892361F7A389B4899C91858914
:102A4000809589238C93868997890197F1F7608D0A
:102A5000718DA685B785558538E020E0CB010197BB
:102A6000F1F7822F90E095958795282F4C9145237B
:102A700009F02068315091F7868D81FD2095809175
:102A8000A40390E001968F7399273091A50338171E
:102A900099F0A091A403B0E0AC59BC4F2C93809363
:102AA000A403828D938D0197F1F7A389B4898C914A
:102AB0009589892B8C93ACCF868D8160868FF1CFE1
:102AC0001F920F920FB60F9211242F933F934F93A3
:102AD0005F936F937F938F939F93AF93BF93EF9386
:102AE000FF938091B900887F803609F44AC0F0F5E1
:102AF000883209F4A7C018F5803109F49BC0B8F4F6
:102B0000882309F4F9C0883009F494C0FF91EF914B
:102B1000BF91AF919F918F917F916F915F914F91F5
:102B20003F912F910F900FBE0F901F9018958831F5
:102B300009F488C0803251F78093190414C080349E
:102B400009F49DC040F48033B9F38833F9F68093DB
:102B5000190485ECB0C0803509F485C0883509F4C6
:102B600096C0883499F60E949E0ED0CF883909F419
:102B70008CC038F5883729F050F4883611F080374A
:102B800029F683E080931B041092630357C08838B2
:102B900009F47BC0803919F0803809F0B7CF8091F3
:102BA0006303803208F071C0E091630381E08E0F0F
:102BB000809363038091BB00F0E0ED5BFC4F80836A
:102BC0003DC0803B39F0E0F4803A09F479C0883A9E
:102BD00009F09CCF84E080931B0410924003109274
:102BE0003F03E0913D03F0913E03099580913F033F
:102BF00081110FC081E080933F0310921D0309C033
:102C0000803C09F4A6CF883C09F4A3CF883B09F0A7
:102C10007DCFE091400381E08E0F80934003F0E090
:102C2000E35EFC4F80818093BB00909140038091D4
:102C30003F0329C08091F6038093BB0085EC80930D
:102C4000BC0064CF9091180480911704981758F530
:102C5000E091180481E08E0F80931804F0E0E950B1
:102C6000FC4F8081E9CFE091180481E08E0F8093C2
:102C700018048091BB00F0E0E950FC4F80839091F4
:102C80001804809117049817C8F285E8D8CFE0910E
:102C9000180481E08E0F809318048091BB00F0E04F
:102CA000E950FC4F808380911A0481115CCF81E050
:102CB0008093F50384EA8093BC0010921B0426CF16
:102CC00085EC8093BC0010921B04809163038032DA
:102CD00030F4E0916303F0E0ED5BFC4F1082609113
:102CE000630370E0E0914103F091420383E493E0D9
:102CF0000995109263030ACF1092190434CF1F92E2
:102D00000F920FB60F9211242F933F934F935F931F
:102D10006F937F938F939F93AF93BF93CF93DF93E3
:102D2000EF93FF938091F902C091D805D0E087FF1F
:102D300024C010928500109284008091F9028F5F68
:102D40008093F9028091F902082E000C990B8C17E0
:102D50009D0724F48091F9028C30C4F180918400A5
:102D600090918500049680349C4908F47AC0809143
:102D7000840090918500049676C08091F902082E17
:102D8000000C990B8C179D07C4F6E091F9028E2F69
:102D9000EE0F990BFC01EE0FFF1FE80FF91FEC542B
:102DA000FA4F808186FFC9CFE091F9028E2FEE0F96
:102DB000990BFC01EE0FFF1FE80FF91FEC54FA4FBF
:102DC000808160E08F730E94D602B7CF209184008B
:102DD00030918500E091F9028E2FEE0F990BFC01E6
:102DE000EE0FFF1FE80FF91FEC54FA4F818192811B
:102DF000820F931F9093890080938800E091F902DD
:102E00008E2FEE0F990BFC01EE0FFF1FE80FF91F3D
:102E1000EC54FA4F808186FF11C0E091F9028E2FA9
:102E2000EE0F990BFC01EE0FFF1FE80FF91FEC549A
:102E3000FA4F808161E08F730E94D602FF91EF917B
:102E4000DF91CF91BF91AF919F918F917F916F91C2
:102E50005F914F913F912F910F900FBE0F901F9058
:102E6000189580E49CE990938900809388008FEF07
:102E70008093F902E3CF109248041092470448EE81
:102E800053E060E070E04093490450934A0460933B
:102E90004B0470934C048FE191E09093460480932F
:102EA000450485EC90E0909352048093510484ECA7
:102EB00090E0909354048093530480EC90E09093BE
:102EC00056048093550481EC90E0909358048093CD
:102ED000570482EC90E090935A048093590486EC56
:102EE00090E090935C0480935B0410925E041092D7
:102EF0005F04109260041092610482EE94E01092DC
:102F0000230510922205909326058093250520E441
:102F100030E0309328052093270510922905109260
:102F20002A0510922C0510922B0510922D05109257
:102F30002F0510922E051092310510923005109237
:102F40003305109232051092350510923405109217
:102F500037051092360510923905109238051092F7
:102F60003B0510923A0510924105109240051092CF
:102F700043051092420510924505109244051092A7
:102F8000470510924605109255051092540510926F
:102F90002405109262051092640510926305109248
:102FA000A7052CE830E0309349052093480526E931
:102FB00030E030934B0520934A0520EA30E030930F
:102FC0004D0520934C052AEA30E030934F052093BD
:102FD0004E0524EB30E030935105209350052EEB45
:102FE00030E0309353052093520528EC30E03093C5
:102FF00057052093560529EC30E03093590520936E
:10300000580527E037E030935B0520935A059093ED
:103010003D0580933C0522EC31E030935D05209323
:103020005C0590933F0580933E0584ED90E090937E
:103030005F0580935E051092AB051092AA05409340
:10304000AC055093AD056093AE057093AF0581E379
:1030500091E09093A9058093A80583E491E0909373
:10306000FE058093FD051092210610922006109215
:103070002306109222061092250610922406109222
:103080002706109226068FEF80931F06E9EDF5E0E4
:103090002FEF48EB5BE08091D8058C30B8F491E0DD
:1030A000980F9093D805808390E0DC01AA0FBB1F96
:1030B000A80FB91FAC54BA4F12965C934E93119758
:1030C000339685E0ED3FF80731F708952083F8CF78
:1030D000789484B5826084BD84B5816084BD85B5F3
:1030E000826085BD85B5816085BD80916E008160FF
:1030F00080936E00109281008091810082608093A5
:1031000081008091810081608093810080918000A6
:103110008160809380008091B10084608093B100D1
:103120008091B00081608093B00080917A008460CB
:1031300080937A0080917A00826080937A008091F7
:103140007A00816080937A0080917A008068809311
:103150007A001092C10089E1809362058091630535
:10316000909164050E94BB1DC0916205D0E0CE0124
:1031700001960E941F1D9093640580936305FC01D6
:10318000EC0FFD1F108222E0DC012C9325E011964C
:103190002C93AE014250510966E772E002960E94FC
:1031A000441E84E49AE09093B6038093B50388E9C3
:1031B00099E09093B4038093B3038BE699E09093E6
:1031C000B2038093B10389EB9BE09093B0038093AB
:1031D000AF0386ED9EE09093AE038093AD0382E64D
:1031E0009BE09093AC038093AB0387EC91E19093C9
:1031F000B8038093B7038DE390E19093BA03809373
:10320000B90381E08093A70540E051EE60E070E0F3
:1032100085E494E00E9438018091A70581114FC098
:1032200061E08DE00E94220362ED70E080E090E0BA
:103230000E94FD0361E08DE00E94D60268E270E02A
:1032400080E090E00E94FD0360E08DE00E94D602E5
:1032500062ED70E080E090E00E94FD0361E08DE0AF
:103260000E94D60268E270E080E090E00E94FD03D8
:1032700060E08DE00E94D6026AEF70E080E090E0AE
:103280000E94FD03C5E062ED70E080E090E00E94E6
:10329000FD0361E08DE00E94D60268E270E080E00C
:1032A00090E00E94FD0360E08DE00E94D602C150D4
:1032B00051F76DE770E080E090E00E94FD0385E447
:1032C00094E090936105809360059093230580932B
:1032D000220582E295E00E94980182EE94E00E942D
:1032E00093060E943D1025E0922E00E010E0882415
:1032F000839432E0E32EF12CCC24C394D12C809122
:10330000BE03882349F069B18091BB0368236C7FB9
:1033100040E080E00E94770B8091BF03882379F022
:1033200063B186B16F73B0E48B9FC0011124682B29
:103330008091BC03682340E081E00E94770B80917C
:10334000C003882359F066B18091BD038F706695E4
:103350006695682340E082E00E94770B80916005CB
:1033600090916105DC01ED91FC910084F185E02DE7
:103370000995892B09F4CEC1809160059091610572
:10338000DC01ED91FC910284F385E02D09959C010F
:103390008F3F980719F3982F80912D05882309F402
:1033A00092C0973F09F07EC010922D05A09125058F
:1033B000B09126056C916137C1F1693709F05CC0A5
:1033C000E0915A05F0915B05309741F280912E050E
:1033D00090912F058330910560F430E020E050E0BB
:1033E00040E070E060E080913C0590913D050995DA
:1033F000B5CFBD016D5F7F4F03970E941901BC01DE
:103400006D5F7F4F80E00E94E900E0912505F0911B
:1034100026059F012D5F3F4F428150E0618170E0A2
:10342000E0915A05F0915B05DECF809156059091B1
:103430005705892B09F492CFBD016F5F7F4F8091B3
:103440002E0590912F0501970E941901BC016F5F15
:103450007F4F80E00E94E90060912505709126056C
:103460006F5F7F4FE0915605F091570580914205BF
:1034700090914305099572CFE0915805F091590557
:10348000309709F46BCF9D012F5F3F4F40912E0580
:1034900050912F0541505109809144059091450567
:1034A00009955CCF60912E0570912F05822F0E94A7
:1034B000E90080912E0590912F05019690932F059C
:1034C00080932E054BCF60912B0570912C056115D3
:1034D000710509F4B1C027FDAFC061507109709347
:1034E0002C0560932B05822F0E94E90080912B050B
:1034F00090912C05892B09F031CF809129058823E3
:1035000009F42CCF803D09F483C040F4803949F19F
:10351000803C09F469C01092290520CF843FE1F175
:10352000853F09F44DC0803EB1F7E0914805F09128
:103530004905309781F3A0912505B09126054C915E
:1035400020E8429FC001112411964C91480F592F39
:10355000511D60912A0580913005909131050995A2
:10356000DACFE0914A05F0914B053097A1F2A09196
:103570002505B09126054C9120E8429FC0011124F9
:1035800011964C91480F592F511D60912A05809139
:10359000320590913305E3CFE0915005F09151054C
:1035A000309709F4B8CFA0912505B09126054C912C
:1035B00050E011966C918091380590913905CFCFEC
:1035C000E0915205F0915305309709F4A4CFA091F2
:1035D0002505B09126054C9150E011966C91809193
:1035E0003A0590913B05BBCFE0914C05F0914D051C
:1035F000309709F490CFA0912505B09126054C9104
:1036000050E060912A058091340590913505A7CF4F
:10361000E0914E05F0914F05309709F47CCFA091D1
:103620002505B09126054C9150E060912A058091C6
:1036300036059091370593CF903F30F4822F8F70ED
:1036400080932A05922F907F903FF1F190F4903C67
:10365000B1F150F4903909F081CEF0922C05E0924E
:103660002B05909329057ACE903D49F1903EA9F320
:1036700075CE993F09F442C028F48CE0890F82305E
:1036800060F36CCE9F3F09F069CE10922C0510922A
:103690002B051092290510922A0590E080E02091D8
:1036A00027053091280582179307A8F4E091250596
:1036B000F0912605E80FF91F10820196F0CFD09205
:1036C0002C05C0922B05CDCF80922D0510922F0591
:1036D00010922E0543CE10922D0510922F051092B8
:1036E0002E05E0915E05F0915F0580914605909171
:1036F0004705309709F432CE099530CEE0915C054C
:10370000F0915D05309709F429CE80913E059091A6
:103710003F05F2CF8FB7F8944090C1035090C20399
:103720006090C3037090C4038FBF8091F1039091A8
:10373000F203A091F303B091F40340910101509181
:10374000020170E060E0481A590A6A0A7B0A4415CF
:1037500055056605770508F051C0840F951FA61F13
:10376000B71F8093F1039093F203A093F303B093F8
:10377000F40392EEA92E94E0B92EC2EFC830C8F43B
:10378000F501ED57FF4F8081823099F48091EF036E
:103790009091F0030C2E02C0959587950A94E2F75C
:1037A00080FF07C08C2F0E94C303BC018C2F0E9496
:1037B000E605CF5F8FEFA81AB80AC830F9F68091F6
:1037C000000187FD1BC0C0E02C2F30E0809100017C
:1037D000082E000C990B8217930784F0929EF0013B
:1037E000939EF00D1124E953FC4F61817281248175
:1037F000438180810E948B10CF5FE6CF80911F06AE
:1038000087FD74C0612C862D90E020911F06022E4A
:10381000000C330B281739070CF468C083509A4FFB
:10382000DC0112967C90672D8DEF95E00E941D05BE
:10383000EC01892B09F458C0B7E0B71540F480912A
:10384000C5039091C603C817D90709F04DC0E72DED
:10385000F0E0EE0FFF1FE95FF94FA080B180E88133
:10386000F9810084F185E02DCE010995181619061D
:10387000DCF580EF0E94DC0080E60E94DC00872DF2
:1038800080640E94DC00A114B10401F5E881F98193
:103890000084F185E02DCE0109955C011A141B040A
:1038A00004F5E881F9810284F385E02DCE010995C4
:1038B000782E8F770E94DC00872D881F8827881F2D
:1038C0000E94DC00E1E0AE1AB108E8CFE881F9819E
:1038D0000084F185E02DCE010995A816B906B4F64D
:1038E000DDCF87EF0E94DC0063948DCF01151105B9
:1038F00009F405CD0E943302882309F400CD0E940B
:103900000000FDCC052E97FB1EF400940E94991C2C
:1039100057FD07D00E94B41C07FC03D04EF40C9452
:10392000991C50954095309521953F4F4F4F5F4FD3
:10393000089590958095709561957F4F8F4F9F4F1B
:1039400008950E94D61CA59F900DB49F900DA49F32
:10395000800D911D11240895B7FF0C94A11C0E94A5
:10396000A11C821B930B0895A1E21A2EAA1BBB1B5C
:10397000FD010DC0AA1FBB1FEE1FFF1FA217B3073B
:10398000E407F50720F0A21BB30BE40BF50B661F51
:10399000771F881F991F1A9469F760957095809515
:1039A00090959B01AC01BD01CF010895A29FB0018C
:1039B000B39FC001A39F700D811D1124911DB29F63
:1039C000700D811D1124911D0895991B79E004C08B
:1039D000991F961708F0961B881F7A95C9F780954E
:1039E000089597FB072E16F4009407D077FD09D0B1
:1039F0000E940B1D07FC05D03EF4909581959F4FCA
:103A00000895709561957F4F0895EE0FFF1F059003
:103A1000F491E02D0994AA1BBB1B51E107C0AA1F1A
:103A2000BB1FA617B70710F0A61BB70B881F991F5F
:103A30005A95A9F780959095BC01CD0108950F93F3
:103A40001F93CF93DF938230910510F482E090E0D2
:103A5000E0912A06F0912B0630E020E0B0E0A0E0F3
:103A6000309799F42115310509F44AC0281B390B08
:103A700024303105D8F58A819B816115710589F162
:103A8000FB0193838283FE0111C040815181028139
:103A9000138148175907E0F04817590799F4109710
:103AA00061F012960C93129713961C933296CF01E5
:103AB000DF91CF911F910F91089500932A061093E3
:103AC0002B06F4CF2115310551F04217530738F07A
:103AD000A901DB019A01BD01DF01F801C1CFEF01AE
:103AE000F9CF90932B0680932A06CDCFFE01E20FEB
:103AF000F31F819391932250310939832883D7CFC3
:103B00002091280630912906232B41F420910501AC
:103B10003091060130932906209328062091030155
:103B2000309104012115310541F42DB73EB7409184
:103B3000070150910801241B350BE0912806F091F4
:103B40002906E217F307A0F42E1B3F0B28173907AD
:103B500078F0AC014E5F5F4F2417350748F04E0FE9
:103B60005F1F5093290640932806819391939FCF1E
:103B7000F0E0E0E09CCFCF93DF930097E9F0FC0109
:103B8000329713821282A0912A06B0912B06ED0182
:103B900030E020E01097A1F420813181820F931F43
:103BA00020912806309129062817390709F061C0AD
:103BB000F0932906E0932806DF91CF910895EA015A
:103BC000CE17DF07E8F54A815B819E01411551055B
:103BD000B1F7E901FB83EA8349915991C40FD51FDD
:103BE000EC17FD0761F4808191810296840F951F87
:103BF000E90199838883828193819B838A83F0E0A2
:103C0000E0E012968D919C9113970097B9F52D9154
:103C10003C911197CD010296820F931F20912806A7
:103C2000309129062817390739F6309751F5109247
:103C30002B0610922A06B0932906A0932806BCCF23
:103C4000D383C28340815181840F951FC817D90740
:103C500061F44E5F5F4F88819981480F591F5183EE
:103C600040838A819B81938382832115310509F0EA
:103C7000B0CFF0932B06E0932A069ECFFD01DC0126
:103C8000C0CF13821282D7CFFB01DC0141505040DC
:103C900048F001900D920020C9F701C01D924150DB
:103CA0005040E0F70895F894FFCFFF130000002C78
:103CB000068000000000004904C901E9084804A585
:103CC00004BD043004000000006902C901F601B619
:103CD0000227020502190200000000BA088D08E957
:103CE0000848048608730864080000000036053799
:103CF000057D0C5F0C4D617820736572766F7320C3
:103D000061747461636865640053706563696679A2
:103D10002073657269616C20525820616E64205472
:103D2000582070696E7300556E6B6E6F776E2070E1
:103D3000696E206D6F6465004932433A20546F6F9D
:103D4000206D616E79206279746573207265636598
:103D500069766564004932433A20546F6F20666586
:103D6000772062797465732072656365697665642E
:103D70000031302D62697420616464726573736907
:103D80006E67206E6F7420737570706F72746564E7
:103D900000746F6F206D616E792071756572696551
:103DA0007300433A5C50726F6772616D2046696CB4
:103DB00065735C57696E646F7773417070735C41B3
:103DC000726475696E6F4C4C432E41726475696EF6
:103DD0006F4944455F312E382E34322E305F7838AB
:103DE000365F5F6D6471676E7839336E34777474E3
:103DF0005C6C69627261726965735C4669726D615F
:103E000074615C6578616D706C65735C5374616E30
:103E1000646172644669726D617461506C75735C43
:103E20005374616E646172644669726D617461504D
:103E30006C75732E696E6F00FFFFFFFFFFFFFFFFC2
:103E4000FFFFFFFFFFFFFFFFFFFFFFFFFFFFFFFF82
:103E5000FFFFFFFFFFFFFFFFFFFFFFFFFFFFFFFF72
:103E6000FFFFFFFFFFFFFFFFFFFFFFFFFFFFFFFF62
:103E7000FFFFFFFFFFFFFFFFFFFFFFFFFFFFFFFF52
:103E80004D85442331F050E070E060E0C8010E94AD
:103E90008C1C8D858111ECCF44E050E070E060E037
:103EA000C8010E948C1CFFEFCF1ADF0AD9CF912CDA
:103EB000812C41E050E0BE016D5E7F4FC8010E9441
:103EC0008C1C4B89842F807C09F06CC0442331F01A
:103ED00050E070E060E0C8010E948C1C8B89811169
:103EE000E8CF42E050E0BE01615F7F4FC8010E9411
:103EF0008C1C42E050E0BE01635F7F4FC8010E940E
:103F00008C1C44E050E070E060E0C8010E948C1C12
:103F100042E050E0BE016F5E7F4FC8010E948C1CE2
:103F20008F85988949895A898115914009F043C044
:103F3000CD84DE84DC24CD24DC2481E0C816D104C9
:103F4000D1F54115544009F04AC044E050E0B201B7
:103F5000C8010E948C1C21E0A21AB10809F46CCEA1
:103F6000FFEFCF16DF0609F067CE0E946D033B011D
:103F70004C01C8010E944C1D181619060CF421CFE3
:103F80000E946D0366197709880999096938734198
:103F90008105910548F562E370E080E090E00E94C1
:103FA0003B03E7CF41E050E070E060E0C8010E94D1
:103FB0008C1C1B8A93CF54274527542770E060E060
:103FC000C8010E948C1CFFEF8F1A9F0A68147904A5
:103FD00009F06FCF96EFC92EDD24DA94BCCFE7EF5E
:103FE000CE2EDD24DA94B7CFCC24CA94DC2CB3CF08
:103FF0006EEFC62EDD24DA94AECF4CEFC42EDD2456
:10400000DA94A9CF8EEFC82EDD24DA9430CED12CED
:10401000C12C2DCECF92DF92EF92FF920F931F9380
:10402000CF93DF93CDB7DEB7AF970FB6F894DEBF6F
:104030000FBECDBF7C016A0109EA11E01A83098332
:104040001C861B8688EE93E0A0E0B0E08D879E87FB
:10405000AF87B88B85E191E09A878987188F0F8B9E
:10406000198E1A8E1B8E1C8E84E089A31BA70AA7AB
:104070001CA61DA61EA61FA680912D0590912E059B
:10408000A0912F05B09130058EA39FA3A8A7B9A733
:104090008B839C83AD83BE8318861F82AE01465DF1
:1040A0005F4FCE0101960E94AA1D81309105B1F4A7
:1040B000D701ED91FC910488F589E02D1DA30CA397
:1040C0008CA59DA5AEA5BFA58EA39FA3A8A7B9A7A4
:1040D000A601BE016C5D7F4FC7010995AF960FB673
:1040E000F894DEBF0FBECDBFDF91CF911F910F912E
:1040F000FF90EF90DF90CF900895CF92DF92EF92F4
:10410000FF920F931F93CF93DF93CDB7DEB7AF9797
:104110000FB6F894DEBF0FBECDBF8C016B017A01E4
:1041200089EA91E09A8389831B821C821D821E8208
:104130001C861B8648EE53E060E070E04D875E878A
:104140006F87788B25E131E03A872987988F8F8BAD
:10415000198E1A8E1B8E1C8E24E029A39BA78AA77A
:104160001CA61DA61EA61FA6D8011C968C918430E5
:1041700060F40E947814882321F0F80184850E945D
:10418000531484E0D8011C968C9380912D05909156
:104190002E05A0912F05B09130058EA39FA3A8A74F
:1041A000B9A78B839C83AD83BE8318861F82AE0123
:1041B000465D5F4FB601CE0101960E94AA1D009791
:1041C000C1F0D801ED91FC910684F785E02D89EAD4
:1041D00091E09DA38CA38CA59DA5AEA5BFA58EA3A4
:1041E0009FA3A8A7B9A7A701BE016C5D7F4FC80117
:1041F0000995AF960FB6F894DEBF0FBECDBFDF9125
:10420000CF911F910F91FF90EF90DF90CF90089585
:10421000EF92FF920F931F93CF93DF9300D000D0C4
:10422000CDB7DEB78C017B01FB0184858430A8F01B
:1042300089EA91E0F80191838083128213821482CB
:104240001582C8010F900F900F900F90DF91CF91C2
:104250001F910F91FF90EF90089580E591E00E94EB
:10426000D70024E030E0AE014F5F5F4F6CE070E0BC
:10427000F70184850E945B1789EA91E0F801918338
:10428000808389819A81AB81BC8182839383A4835B
:10429000B583D7CF85ED8093BC0080914104909188
:1042A0004204A0914304B09144040796A11DB11D9E
:1042B00023E0B695A795979587952A95D1F72091F4
:1042C000BC0024FD03C010923F04089540914104B6
:1042D000509142046091430470914404452B462B55
:1042E000472B69F30097A105B10541F025E32A9515
:1042F000F1F700000197A109B109E1CF80914004D5
:104300000C9470071F920F920FB60F9211242F93E7
:104310003F934F935F936F937F938F939F93AF934D
:10432000BF93EF93FF9380E794E00E94EA01FF912F
:10433000EF91BF91AF919F918F917F916F915F911D
:104340004F913F912F910F900FBE0F901F90189596
:104350001F920F920FB60F9211242F938F939F935A
:10436000EF93FF93E0918004F09181048081E091CC
:104370008604F091870482FD1BC09081809189049E
:104380008F5F8F7320918A04821741F0E091890436
:10439000F0E0E059FB4F958F80938904FF91EF91F6
:1043A0009F918F912F910F900FBE0F901F90189596
:1043B0008081F4CF1F920F920FB60F9211242F938A
:1043C0003F938F939F93AF93BF938091B10390914D
:1043D000B203A091B303B091B4033091B00323E0D2
:1043E000230F2D3758F50196A11DB11D2093B00361
:1043F0008093B1039093B203A093B303B093B4033B
:104400008091B5039091B603A091B703B091B80322
:104410000196A11DB11D8093B5039093B603A0939F
:10442000B703B093B803BF91AF919F918F913F9124
:104430002F910F900FBE0F901F90189526E8230F15
:104440000296A11DB11DD2CF1F920F920FB60F92EF
:1044500011240F900FBE0F901F9018951F920F926E
:104460000FB60F9211242F933F934F935F936F9347
:104470007F938F939F93AF93BF93EF93FF9380911D
:10448000B900887F803609F44AC0F0F5883209F413
:10449000A7C018F5803109F49BC0B8F4882309F44B
:1044A000F9C0883009F494C0FF91EF91BF91AF91AA
:1044B0009F918F917F916F915F914F913F912F913C
:1044C0000F900FBE0F901F901895883109F488C087
:1044D000803251F780933D0414C0803409F49DC0AC
:1044E00040F48033B9F38833F9F680933D0485ECCA
:1044F000B0C0803509F485C0883509F496C0883489
:1045000099F60E944A21D0CF883909F48CC038F539
:10451000883729F050F4883611F0803729F683E087
:1045200080933F041092AD0357C0883809F47BC0D4
:10453000803919F0803809F0B7CF8091AD0380320F
:1045400008F071C0E091AD0381E08E0F8093AD0360
:104550008091BB00F0E0E357FC4F80833DC0803B7F
:1045600039F0E0F4803A09F479C0883A09F09CCF38
:1045700084E080933F0410928A0310928903E091B3
:104580008703F091880309958091890381110FC0F9
:1045900081E0809389031092670309C0803C09F48D
:1045A000A6CF883C09F4A3CF883B09F07DCFE091EA
:1045B0008A0381E08E0F80938A03F0E0E959FC4F73
:1045C00080818093BB0090918A038091890329C0E8
:1045D00080911A048093BB0085EC8093BC0064CF6B
:1045E00090913C0480913B04981758F5E0913C046D
:1045F00081E08E0F80933C04F0E0E55EFB4F80810C
:10460000E9CFE0913C0481E08E0F80933C048091DF
:10461000BB00F0E0E55EFB4F808390913C0480910D
:104620003B049817C8F285E8D8CFE0913C0481E0BC
:104630008E0F80933C048091BB00F0E0E55EFB4F61
:10464000808380913E0481115CCF81E080931904C6
:1046500084EA8093BC0010923F0426CF85EC8093BF
:10466000BC0010923F048091AD03803230F4E091A1
:10467000AD03F0E0E357FC4F10826091AD0370E0B2
:10468000E0918B03F0918C038DE893E009951092F3
:10469000AD030ACF10923D0434CF1F920F920FB694
:1046A0000F9211242F933F934F935F936F937F93B8
:1046B0008F939F93AF93BF93CF93DF93EF93FF932A
:1046C00080914303C0913906D0E087FF24C0109247
:1046D000850010928400809143038F5F8093430391
:1046E00080914303082E000C990B8C179D0724F42E
:1046F000809143038C30C4F18091840090918500B7
:10470000049680349C4908F47AC08091840090918A
:104710008500049676C080914303082E000C990B07
:104720008C179D07C4F6E09143038E2FEE0F990B73
:10473000FC01EE0FFF1FE80FF91FEB5EF94F8081C0
:1047400086FFC9CFE09143038E2FEE0F990BFC013A
:10475000EE0FFF1FE80FF91FEB5EF94F808160E05D
:104760008F730E947902B7CF209184003091850029
:10477000E09143038E2FEE0F990BFC01EE0FFF1F0C
:10478000E80FF91FEB5EF94F81819281820F931F31
:104790009093890080938800E09143038E2FEE0F61
:1047A000990BFC01EE0FFF1FE80FF91FEB5EF94FAD
:1047B000808186FF11C0E09143038E2FEE0F990B8D
:1047C000FC01EE0FFF1FE80FF91FEB5EF94F808130
:1047D00061E08F730E947902FF91EF91DF91CF9199
:1047E000BF91AF919F918F917F916F915F914F9109
:1047F0003F912F910F900FBE0F901F90189580E45E
:104800009CE990938900809388008FEF8093430305
:10481000E3CF109273041092720448EE53E060E00C
:1048200070E0409374045093750460937604709321
:10483000770485E491E0909371048093700485EC93
:1048400090E090937D0480937C0484EC90E09093BE
:104850007F0480937E0480EC90E0909381048093A9
:10486000800481EC90E0909383048093820482EC36
:1048700090E0909385048093840486EC90E090937C
:104880008704809386041092890410928A041092FF
:104890008B0410928C0489EA91E090930E0580932A
:1048A0000D0510920F05109210051092110510922F
:1048B000120590931405809313051092150510921C
:1048C0001605109217051092180590931A058093FB
:1048D000190510921B0510921C0510921D051092CF
:1048E0001E059093200580931F05109221051092BC
:1048F000220510922305109224059093260580939B
:10490000250510922705109228051092290510926E
:104910002A05909332058093310510923305109249
:104920003405109235051092360590932C0580932E
:104930002B0510922D0510922E0510922F05109226
:104940003005909338058093370510923905109201
:104950003A0510923B0510923C0590933E058093DA
:104960003D0510923F0510924005109241051092AE
:10497000420523E435E010928405109283053093BC
:10498000870520938605E0E4F0E0F0938905E09345
:10499000880510928A0510928B0510928D05109251
:1049A0008C0510928E051092900510928F05109232
:1049B0009205109291051092940510929305109211
:1049C00096051092950510929805109297051092F1
:1049D0009A051092990510929C0510929B051092D1
:1049E000A2051092A1051092A4051092A3051092A1
:1049F000A6051092A5051092A8051092A705109281
:104A0000B6051092B505109285051092C305109257
:104A1000C5051092C40510920806E7E8F0E0F0938F
:104A2000AA05E093A905E1E9F0E0F093AC05E09375
:104A3000AB05EBE9F0E0F093AE05E093AD05E5EAF8
:104A4000F0E0F093B005E093AF05EFEAF0E0F0930B
:104A5000B205E093B105E9EBF0E0F093B405E09323
:104A6000B305E3ECF0E0F093B805E093B705E4ECB0
:104A7000F0E0F093BA05E093B905E6E2F7E0F093D1
:104A8000BC05E093BB0530939E0520939D05E5E6AC
:104A9000F1E0F093BE05E093BD053093A0052093AF
:104AA0009F052FEC30E03093C0052093BF05109296
:104AB0000C0610920B0640930D0650930E06609361
:104AC0000F067093100627E531E030930A06209315
:104AD0000906909391068093900610929206109288
:104AE00093061092940610929506109284061092E6
:104AF00083064093850650938606609387067093DD
:104B000088062BE731E0309382062093810624E06B
:104B100020938D0628EE33E030938F0620938E0687
:104B200010926106109260064093620650936306ED
:104B3000609364067093650629E631E030935F0662
:104B400020935E0621E836E030936B0620936A06D8
:104B500090936D0680936C062AE020936E06109267
:104B60006F06109270063FE03093710690937306C3
:104B70008093720620937406109275061092760642
:104B800083E080937706109279061092780686ED7E
:104B90009BE090937B0680937A0610927C06EAE372
:104BA000F6E02FEF48EB5BE0809139068C30B8F4EB
:104BB00091E0980F90933906808390E0DC01AA0F72
:104BC000BB1FA80FB91FAB5EB94F12965C934E93F3
:104BD0001197339686E0EE35F80731F70895208374
:104BE000F8CFCF93DF9300D000D000D0CDB7DEB7A1
:104BF000789484B5826084BD84B5816084BD85B5B8
:104C0000826085BD85B5816085BD80916E008160C3
:104C100080936E0010928100809181008260809369
:104C2000810080918100816080938100809180006B
:104C30008160809380008091B10084608093B10096
:104C40008091B00081608093B00080917A00846090
:104C500080937A0080917A00826080937A008091BC
:104C60007A00816080937A0080917A0080688093D6
:104C70007A001092C10009EA11E01A8309838AE0E0
:104C80008B831C821D828FE08E83CE0101960E9451
:104C900039151A8309831B821C821D821E8280E5BE
:104CA00091E00E94D70044E050E0BE016D5F7F4F6D
:104CB0008FE090E00E949B138DE18093C30580916B
:104CC000C4059091C5050E94862A0091C30510E095
:104CD000C80101960E94EA299093C5058093C405F6
:104CE000FC01E00FF11F108222E0DC012C9325E093
:104CF00011962C93A801425051096CEB72E0029678
:104D00000E94162B80E69AE09093C4038093C3031D
:104D100084EB99E09093C2038093C10387E899E004
:104D20009093C0038093BF0385ED9BE09093BE03F7
:104D30008093BD038DE49EE09093BC038093BB03FE
:104D40008EE79BE09093BA038093B90382E391E1ED
:104D50009093C6038093C5038CEA9FE09093C803A9
:104D60008093C70390E080E02FE7843021F036EF96
:104D7000380F343038F4FC01EA53FA4F30813F37B2
:104D800009F0208301968631910579F761E084E08E
:104D90000E94C50261E084E00E9479028EE596E0FF
:104DA0009093C2058093C1059093840580938305F9
:104DB00083E895E00E94DA0083E495E00E94B20661
:104DC0000E94AC0F25E0B22E00E010E0AA24A394CC
:104DD00032E0E32EF12CCC24C394D12C8091CC036F
:104DE000882349F069B18091C90368236C7F40E052
:104DF00080E00E94930B8091CD03882379F063B10A
:104E000086B16F73B0E48B9FC0011124682B809131
:104E1000CA03682340E081E00E94930B8091CE0397
:104E2000882359F066B18091CB038F7066956695A3
:104E3000682340E082E00E94930B8091C10590912D
:104E4000C205DC01ED91FC910084F185E02D09950E
:104E5000892B09F4CEC18091C1059091C205DC0176
:104E6000ED91FC910284F385E02D09959C018F3F23
:104E7000980719F3982F80918E05882309F492C022
:104E8000973F09F07EC010928E05A0918605B091E3
:104E900087056C916137C1F1693709F05CC0E09119
:104EA000BB05F091BC05309741F280918F05909140
:104EB00090058330910560F430E020E050E040E060
:104EC00070E060E080919D0590919E050995B5CFB9
:104ED000BD016D5F7F4F03970E944101BC016D5F73
:104EE0007F4F80E00E941101E0918605F0918705D7
:104EF0009F012D5F3F4F428150E0618170E0E09162
:104F0000BB05F091BC05DECF8091B7059091B80547
:104F1000892B09F492CFBD016F5F7F4F80918F0580
:104F20009091900501970E944101BC016F5F7F4FF6
:104F300080E00E94110160918605709187056F5F86
:104F40007F4FE091B705F091B8058091A30590914E
:104F5000A405099572CFE091B905F091BA05309793
:104F600009F46BCF9D012F5F3F4F40918F0550910A
:104F70009005415051098091A5059091A60509958C
:104F80005CCF60918F0570919005822F0E94110176
:104F900080918F0590919005019690939005809354
:104FA0008F054BCF60918C0570918D056115710552
:104FB00009F4B1C027FDAFC06150710970938D0530
:104FC00060938C05822F0E94110180918C05909135
:104FD0008D05892B09F031CF80918A05882309F44A
:104FE0002CCF803D09F483C040F4803949F1803CE6
:104FF00009F469C010928A0520CF843FE1F1853F12
:1050000009F44DC0803EB1F7E091A905F091AA05E1
:10501000309781F3A0918605B09187054C9120E8E7
:10502000429FC001112411964C91480F592F511DD8
:1050300060918B0580919105909192050995DACF49
:10504000E091AB05F091AC053097A1F2A0918605F7
:10505000B09187054C9120E8429FC0011124119620
:105060004C91480F592F511D60918B0580919305EC
:1050700090919405E3CFE091B105F091B20530979E
:1050800009F4B8CFA0918605B09187054C9150E006
:1050900011966C918091990590919A05CFCFE091EE
:1050A000B305F091B405309709F4A4CFA09186051B
:1050B000B09187054C9150E011966C9180919B05C1
:1050C00090919C05BBCFE091AD05F091AE05309776
:1050D00009F490CFA0918605B09187054C9150E0DE
:1050E00060918B058091950590919605A7CFE091F1
:1050F000AF05F091B005309709F47CCFA0918605FB
:10510000B09187054C9150E060918B058091970597
:105110009091980593CF903F30F4822F8F708093B9
:105120008B05922F907F903FF1F190F4903CB1F17C
:1051300050F4903909F081CEF0928D05E0928C0503
:1051400090938A057ACE903D49F1903EA9F375CEB1
:10515000993F09F442C028F48CE0890F823060F353
:105160006CCE9F3F09F069CE10928D0510928C0590
:1051700010928A0510928B0590E080E020918805BE
:105180003091890582179307A8F4E0918605F09184
:105190008705E80FF91F10820196F0CFD0928D0598
:1051A000C0928C05CDCFA0928E05109290051092E2
:1051B0008F0543CE10928E051092900510928F05A8
:1051C000E091BF05F091C0058091A7059091A805D9
:1051D000309709F432CE099530CEE091BD05F091BB
:1051E000BE05309709F429CE80919F059091A005C6
:1051F000F2CF0E946D032B013C018091F903909145
:10520000FA03A091FB03B091FC034091010150917E
:10521000020170E060E0481A590A6A0A7B0A4415E4
:1052200055056605770508F054C0840F951FA61F25
:10523000B71F8093F9039093FA03A093FB03B093F5
:10524000FC0383E4882E85E0982E92EF792E87E088
:105250008715C8F0F401ED57FF4F8081823099F433
:105260008091F7039091F803072C02C095958795DC
:105270000A94E2F780FF07C0872D0E940103BC015A
:10528000872D0E9405067394AFEF8A1A9A0AB8E038
:105290007B12DDCF8091000187FD1BC0912C292D51
:1052A00030E080910001082E000C990B82179307C3
:1052B00084F0B29EF001B39EF00D1124E153FC4F37
:1052C000618172812481438180810E94F60F9394D1
:1052D000E6CF0115110509F481CD0E94D60188237E
:1052E00009F47CCD0E94000079CD052E97FB1EF4B9
:1052F00000940E948C2957FD07D00E94A72907FC23
:1053000003D04EF40C948C295095409530952195FE
:105310003F4F4F4F5F4F08959095809570956195E1
:105320007F4F8F4F9F4F08950E94C929A59F900DD1
:10533000B49F900DA49F800D911D11240895B7FF77
:105340000C9494290E949429821B930B0895A1E246
:105350001A2EAA1BBB1BFD010DC0AA1FBB1FEE1FEF
:10536000FF1FA217B307E407F50720F0A21BB30B3A
:10537000E40BF50B661F771F881F991F1A9469F7B6
:1053800060957095809590959B01AC01BD01CF0112
:105390000895A29FB001B39FC001A39F700D811D0E
:1053A0001124911DB29F700D811D1124911D08952E
:1053B000991B79E004C0991F961708F0961B881F67
:1053C0007A95C9F780950895EE0FFF1F0590F49127
:1053D000E02D09940F931F93CF93DF9382309105B3
:1053E00010F482E090E0E0919806F091990630E0A8
:1053F00020E0B0E0A0E0309799F42115310509F4E0
:105400004AC0281B390B24303105D8F58A819B818D
:105410006115710589F1FB0193838283FE0111C03F
:10542000408151810281138148175907E0F04817E4
:10543000590799F4109761F012960C9312971396EE
:105440001C933296CF01DF91CF911F910F91089558
:105450000093980610939906F4CF2115310551F069
:105460004217530738F0A901DB019A01BD01DF01A2
:10547000F801C1CFEF01F9CF909399068093980678
:10548000CDCFFE01E20FF31F81939193225031099A
:1054900039832883D7CF2091960630919706232B06
:1054A00041F4209107013091080130939706209331
:1054B000960620910501309106012115310541F430
:1054C0002DB73EB74091090150910A01241B350BBD
:1054D000E0919606F0919706E217F307A0F42E1BD1
:1054E0003F0B2817390778F0AC014E5F5F4F241748
:1054F000350748F04E0F5F1F50939706409396066E
:10550000819391939FCFF0E0E0E09CCFCF93DF9326
:105510000097E9F0FC01329713821282A09198065D
:10552000B0919906ED0130E020E01097A1F42081C0
:105530003181820F931F209196063091970628178C
:10554000390709F061C0F0939706E0939606DF9162
:10555000CF910895EA01CE17DF07E8F54A815B8114
:105560009E0141155105B1F7E901FB83EA83499199
:105570005991C40FD51FEC17FD0761F4808191810B
:105580000296840F951FE901998388838281938114
:105590009B838A83F0E0E0E012968D919C911397B3
:1055A0000097B9F52D913C911197CD010296820F8C
:1055B000931F20919606309197062817390739F6E0
:1055C000309751F51092990610929806B09397066D
:1055D000A0939606BCCFD383C28340815181840FB0
:1055E000951FC817D90761F44E5F5F4F8881998175
:1055F000480F591F518340838A819B819383828303
:105600002115310509F0B0CFF0939906E093980683
:105610009ECFFD01DC01C0CF13821282D7CFDC0107
:1056200001C06D9341505040E0F70895FB01DC014B
:105630004150504048F001900D920020C9F701C040
:105640001D9241505040E0F70895F894FFCFFF13AA
:105650000000C000009A06800001005E000000000B
:10566000000000D804B71A5F0D64016001AB1C3262
:1056700017A71942186B1410050A20DF144C1D8C53
:105680001C5F054F054B05470590A2DA0053E50066
:105690000000000C026C0199015902CA01A801BC6A
:1056A0000100000000D908AC085F0D6401A5089254
:1056B00008830800000000CE0C6C015F0DEA0C2D81
:1056C0000D160DFF0C00000000F904F11AAE1A9936
:1056D0001AB31BD51C411725197D20EF1CA6148475
:1056E00014570D540D520DEE04480D221D0821F8DB
:1056F0001C440D00000000030E4D6178207365729C
:10570000766F7320617474616368656400556E6BB5
:105710006E6F776E2070696E206D6F646500493220
:10572000433A20546F6F206D616E79206279746501
:1057300073207265636569766564004932433A2077
:10574000546F6F2066657720627974657320726587
:105750006365697665640031302D62697420616427
:105760006472657373696E67206E6F7420737570F1
:10577000706F7274656400746F6F206D616E792054
:105780007175657269657300433A5C50726F677238
:10579000616D2046696C65735C57696E646F7773E1
:1057A000417070735C41726475696E6F4C4C432E2E
:1057B00041726475696E6F4944455F312E382E34ED
:1057C000322E305F7838365F5F6D6471676E78397E
:1057D000336E347774745C6C69627261726965737C
:1057E0005C4669726D6174615C6578616D706C6551
:1057F000735C5374616E646172644669726D617446
:105800006145746865726E65745C5374616E646141
:1058100072644669726D61746145746865726E6523
:10582000742E696E6F00FFFFFFFFFFFFFFFFFFFF9A
:10583000FFFFFFFFFFFFFFFFFFFFFFFFFFFFFFFF78
:10584000FFFFFFFFFFFFFFFFFFFFFFFFFFFFFFFF68
:10585000FFFFFFFFFFFFFFFFFFFFFFFFFFFFFFFF58
:10586000FFFFFFFFFFFFFFFFFFFFFFFFFFFFFFFF48
:107800000C94343C0C94513C0C94513C0C94513CE1
:107810000C94513C0C94513C0C94513C0C94513CB4
:107820000C94513C0C94513C0C94513C0C94513CA4
:107830000C94513C0C94513C0C94513C0C94513C94
:107840000C94513C0C94513C0C94513C0C94513C84
:107850000C94513C0C94513C0C94513C0C94513C74
:107860000C94513C0C94513C11241FBECFEFD8E036
:10787000DEBFCDBF11E0A0E0B1E0ECE9FFE702C060
:1078800005900D92A230B107D9F712E0A2E0B1E065
:1078900001C01D92AD30B107E1F70E942D3D0C945F
:1078A000CC3F0C94003C982F959595959595959582
:1078B000905D8F708A307CF0282F295A8091C0000B
:1078C00085FFFCCF9093C6008091C00085FFFCCF60
:1078D0002093C6000895282F205DF0CF982F809127
:1078E000C00085FFFCCF9093C6000895EF92FF92F1
:1078F0000F931F93EE24FF2487018091C00087FD22
:1079000017C00894E11CF11C011D111D81E4E8164B
:1079100082E4F8068FE0080780E0180770F3E09132
:107920000401F091050109958091C00087FFE9CF1E
:107930008091C6001F910F91FF90EF9008950E94D3
:10794000763C982F8091C00085FFFCCF9093C600B5
:1079500091362CF490330CF09053892F089597555D
:10796000892F08951F930E949F3C182F0E949F3CCF
:107970001295107F810F1F9108951F93182F882350
:1079800021F00E94763C1150E1F71F9108951F935A
:10799000182F0E94763C803249F0809103018F5F5E
:1079A000809303018530C1F01F9108958091C0003C
:1079B00085FFFCCF84E18093C6008091C00085FFE5
:1079C000FCCF1093C6008091C00085FFFCCF80E102
:1079D0008093C6001F910895E0910401F091050184
:1079E00009951F9108950E94763C803241F0809164
:1079F00003018F5F80930301853081F008958091AA
:107A0000C00085FFFCCF84E18093C6008091C00058
:107A100085FFFCCF80E18093C6000895E0910401CA
:107A2000F09105010995089540E951E08823A1F0FE
:107A30002D9A28EE33E0FA013197F1F721503040CA
:107A4000D1F72D9828EE33E0FA013197F1F7215064
:107A50003040D1F7815061F708953F924F925F9285
:107A60006F927F928F929F92AF92BF92CF92DF924E
